:020000040800F2
:10000000B00F0020D51700080503000807030008FB
:100010000B0300080F030008130300080000000092
:1000200000000000000000000000000017030008AE
:1000300019030008000000001B0300081D0300084E
:10004000EF170008EF170008EF170008EF17000878
:10005000EF170008EF170008EF170008EF17000868
:10006000EF170008EF170008EF170008EF17000858
:10007000EF170008EF170008EF170008EF17000848
:10008000EF170008EF170008EF170008EF17000838
:10009000EF170008EF170008EF170008EF17000828
:1000A000EF170008EF170008EF170008EF17000818
:1000B000EF170008EF170008ED120008EF1700080F
:1000C000EF170008EF170008EF170008EF170008F8
:1000D000EF170008D314000805150008EF170008F3
:1000E000EF170008EF170008EF170008EF170008D8
:1000F000EF170008EF170008EF170008EF170008C8
:10010000EF170008EF170008EF170008EF170008B7
:10011000EF170008EF170008EF170008EF170008A7
:10012000EF170008EF170008EF170008EF17000897
:10013000DFF80CD003F01AFC0048004789010008E2
:10014000B00F002008B54FF4E06001F055FB1E2011
:100150008DF8000001208DF801008DF802008DF867
:100160000300684601F04DFB1D208DF800000120C2
:100170008DF8010002208DF8020001208DF80300A7
:10018000684601F03EFB08BD8EB001F079FA00F040
:100190003CFD00F029FB01F0D8F94FF4E13001F00B
:1001A00010FA01F081F801F0A1F800F013FA00F064
:1001B000F3FFFFF7C7FF00F028FD3DA2012108462D
:1001C00000F067FC3DA20121022000F062FC00F07B
:1001D00077FD6BE000F073FA3A490860322001F0D5
:1001E0008CFA00F078FD3848007818B1364800786D
:1001F000052802D101203549087000F0ECFD344893
:100200000078012808D100F0D7FF3249486C03F08C
:1002100033F93149088013E02D48007802280CD1C9
:1002200000F0CAFF2B48416C2C4803F048F8044604
:1002300003F022F92849088002E0002026490880BE
:1002400000F09DFF2349086A03F02AF904460D4691
:100250002049C86903F024F906460F461D498869FC
:1002600003F01EF9804689461648006803F018F925
:1002700082468B461749086803F012F9CDE90C0154
:100280001348407812490978134A1288CDE900AB27
:10029000CDE90289CDE90467CDE90645CDE908211C
:1002A0000A900FA0DDE90C2303F0D2FB92E70000D7
:1002B0004F4C4544322054657374000054656D7092
:1002C0003A000000180800201C0800201D0800202B
:1002D0001E08002044080020200800200000FA43E7
:1002E000252E32662C252E32662C252E32662C25A4
:1002F0002E32662C252E32662C25642C25642C2566
:10030000640A0000704700BFFEE700BFFEE700BFC1
:10031000FEE700BFFEE77047704770477047000078
:100320000CB50020019000906C48006840F48030CB
:100330006A49086000BF6948006800F40030009016
:100340000198401C0190009818B90198B0F5A06F71
:10035000F1D16248006800F4003010B10120009033
:1003600001E0002000900098012843D15C4800681B
:1003700040F010005A4908600846006820F0030069
:1003800008600846006840F0020008605348406872
:10039000524948600846406848600846406840F452
:1003A000806048600846406820F47C104860084639
:1003B000406840F4E81048600846006840F08070EB
:1003C000086000BF4548006800F000700028F9D0C0
:1003D0004248406820F003004049486008464068B1
:1003E00040F00200486000BF3C48406800F00C004C
:1003F0000828F9D10CBD10B5FFF792FF10BD10B55C
:100400003648006840F001003449086008464068FA
:10041000344908403149486008460068324908407C
:100420002E4908600846006820F4802008600846CD
:10043000406820F4FE0048604FF41F008860FFF71A
:10044000DAFF4FF000602949086010BD10B50021A7
:1004500000200022214B5B6803F00C0121B104292C
:1004600006D0082928D107E0214B224C236027E041
:100470001F4B204C236023E0184B5B6803F4701083
:10048000164B5B6803F48032022303EB904022B9E1
:10049000194B4343174C23600DE0104B5B6803F48A
:1004A000003323B1144B4343124C236003E0104B41
:1004B0004343104C236003E00D4B0E4C236000BF00
:1004C00000BF064B5B68C3F303130C4CE15C094BA4
:1004D0001B68CB40074C236010BD00000010024099
:1004E000002002400000FFF8FFFFF6FE08ED00E0EC
:1004F00000127A000408002000093D0008080020CE
:1005000008B54020ADF8000048208DF8030069468A
:10051000B34801F03FFA08BD10B50024FFF7F0FF23
:1005200004E0601CC4B2012001F026F94021AC486F
:1005300001F0C3FA08B1642CF3DB642C01DB012069
:1005400010BD002404E0601CC4B2012001F014F9C5
:100550004021A34801F0B1FA08B9F02CF3DBF02CEC
:1005600001DB0120ECE70020EAE708B54020ADF808
:10057000000010208DF8030003208DF8020069466A
:10058000974801F007FA08BD10B5FFF7EEFF4021CC
:10059000934801F0AEFA40F2EE2001F0EDF8402170
:1005A0008F4801F0A4FA0F2001F0E6F810BD08B55D
:1005B0000121202001F0AAFC4020ADF8000010200D
:1005C0008DF8030003208DF802006946844801F08D
:1005D000E1F908BD10B5FFF7EAFF4021804801F0BE
:1005E00086FAFFF7D1FFFFF797FF10BD10B5FFF7B1
:1005F000BCFF40217A4801F07CFA0A2001F0BCF8E7
:10060000FFF77EFF4021764801F057FA012801D11B
:10061000012400E000242D2001F0AEF8204610BD9A
:1006200070B50026002408E0FFF7E0FF054605FA54
:1006300004F03043C6B2601CC4B2082CF4DB304670
:1006400070BD70B50446FFF790FF002522E004F06E
:100650000106641076B14021614801F04AFA082091
:1006600001F08AF840215E4801F041FA3A2001F099
:1006700083F80DE040215A4801F03BFA462001F092
:100680007BF84021564801F032FA022001F074F85C
:10069000681CC5B2082DDADB70BD10B5FFF774FF1A
:1006A000FFF73AFFCC20FFF7CCFF10BD10B5FFF7E6
:1006B0006BFFFFF731FF5520FFF7C3FF10BD2DE99A
:1006C000F05FFFF7EAFF4420FFF7BBFFFFF7E5FF0E
:1006D000BE20FFF7B6FFFFF7A3FF8346FFF7A0FF9B
:1006E00082464FEA0A2004B244EA0B04002C0DDAD9
:1006F000E043401C02F096FE07460022394B02F010
:1007000016FE054602F0DFFE81460BE0204602F0B1
:1007100089FE07460022334B02F009FE054602F02F
:10072000D2FE81464846BDE8F09F70B505463320AD
:10073000FFF787FF002404E0FFF772FF2855601CD5
:10074000C4B2082CF8DB70BD2DE9FC5F0646FFF74C
:10075000ADFF002404E0305DFFF773FF601CC4B2FE
:10076000082CF8DB4420FFF76CFFFFF79FFF002405
:1007700004E0305DFFF765FF601CC4B2082CF8DBB5
:10078000BE20FFF75EFFFFF74BFF8346FFF748FFF2
:1007900081464FEA092005B245EA0B05002D0EDA25
:1007A000E843401C02F03EFE074600220D4B02F0DB
:1007B000BEFDCDE9000102F086FE82460CE028462F
:1007C00002F030FE07460022064B02F0B0FDCDE9F4
:1007D000000102F078FE82465046BDE8FC9F000012
:1007E000001401400000B03F08B50121442001F091
:1007F0008DFB0820ADF8000048208DF80300694605
:10080000274801F0C7F81020ADF8000048208DF807
:1008100003006946224801F0BDF80120ADF8000050
:1008200028208DF8030069461E4801F0B3F808BD82
:1008300070B504460D462946204601F03EF980B9C0
:100840000A2000F05AFF2946204601F036F940B947
:1008500000BF2946204601F030F90028F9D00120D8
:1008600070BD0020FCE770B504460D4629462046C1
:1008700001F023F9012811D10A2000F03EFF29469A
:10088000204601F01AF9012808D100BF2946204668
:1008900001F013F90128F9D0012070BD0020FCE718
:1008A000001801400008014008B50121082001F0AE
:1008B0002DFB14208DF8030003208DF802004FF467
:1008C0008070ADF800006946FB4801F063F84FF412
:1008D0000070ADF800006946F74801F05BF80122AE
:1008E0001102F54801F007F901225102F24801F026
:1008F00002F908BD10B501225102EF4801F0FBF8E2
:1009000001221102EC4801F0F6F800224FF40071C8
:10091000E94801F0F0F800224FF48071E64801F058
:10092000EAF810BD10B500224FF40071E24801F062
:10093000E2F801221102E04801F0DDF80122510243
:10094000DD4801F0D8F810BD70B50546002415E06B
:100950008020204100EA05024FF40071D64801F0E2
:10096000CAF801221102D44801F0C5F800224FF460
:100970008071D14801F0BFF8601CC4B2082CE7DBDD
:1009800001221102CC4801F0B6F800224FF4807128
:10099000C94801F0B0F870BD10B50446FFF7AAFFD2
:1009A0007820FFF7D1FF0020FFF7CEFF2046FFF7AA
:1009B000CBFFFFF7B7FF10BD10B50446FFF79AFF56
:1009C0007820FFF7C1FF4020FFF7BEFF2046FFF76A
:1009D000BBFFFFF7A7FF10BD70B505460C4645F0FD
:1009E000B000FFF7D9FF102141EA1410FFF7D4FF40
:1009F00004F00F00FFF7D0FF70BD70B500240EE0CB
:100A000000212046FFF7E8FF002504E00020FFF763
:100A1000D3FF681CC5B2802DF8DB601CC4B2082C63
:100A2000EEDB70BD2DE9F04105460E461746721EFD
:100A3000D206110E6A1E5206100EFFF7CDFF0024DB
:100A400009E0A7F120019D4A02EB0111085DFFF7C3
:100A5000B3FF601CC4B2082CF3DB721ED206110E69
:100A60006A1E012303EB4202D0B2FFF7B5FF002458
:100A70000BE0A7F12001914A02EB011204F10801F9
:100A8000505CFFF799FF601CC4B2082CF1DBBDE895
:100A9000F0812DE9F04107460E461546002407E097
:100AA0002A5D3019C1B23846FFF7BCFF601CC4B2E2
:100AB000285D0028F4D1BDE8F08110B50246012080
:100AC00000E050430B1EA1F10101FAD110BD2DE948
:100AD000F04780460E4617461D46002415E0281BA9
:100AE000411E0A20FFF7E9FFB7FBF0F00A21B0FB37
:100AF000F1F201FB120000F130093019C1B24A468F
:100B00004046FFF78FFF601CC4B2AC42E7DBBDE894
:100B1000F0872DE9F0478146884615461E46002D90
:100B200006DB2B2241464846FFF77CFF2F4605E0B7
:100B30002D2241464846FFF775FF6F42002417E01B
:100B4000301B411E0A20FFF7B8FFB7FBF0F00A2167
:100B5000B0FBF1F201FB120000F1300A08EB0400D7
:100B6000401CC1B252464846FFF75CFF601CC4B24D
:100B7000B442E5DBBDE8F0872DE9F04781460E463B
:100B800090461F4600241DE0381B411E1020FFF731
:100B900094FFB8FBF0F000F00F050A2D08DA05F11C
:100BA0003000C2B23019C1B24846FFF73BFF07E040
:100BB00005F13700C2B23019C1B24846FFF732FF23
:100BC000601CC4B2BC42DFDBBDE8F0872DE9F04712
:100BD00080460E4617461D46002412E0281B411E83
:100BE0000220FFF76AFFB7FBF0F000F0010000F110
:100BF00030093019C1B24A464046FFF713FF601C66
:100C0000C4B2AC42EADBBDE8F08770B5002406E070
:100C1000002500E06D1CB5F57A7FFBD3641CB4F5AC
:100C20007A7FF5D3FFF740FEAE20FFF7B5FED52063
:100C3000FFF7B2FE8020FFF7AFFEA820FFF7ACFE63
:100C40003F20FFF7A9FED320FFF7A6FE0020FFF705
:100C5000A3FE4020FFF7A0FEA120FFF79DFEC820C5
:100C6000FFF79AFEDA20FFF797FE1220FFF794FEB7
:100C70008120FFF791FECF20FFF78EFED920FFF7EE
:100C80008BFEF120FFF788FEDB20FFF785FE30208A
:100C9000FFF782FEA420FFF77FFEA620FFF77CFE71
:100CA0008D20FFF779FE1420FFF776FEAF20FFF7C7
:100CB00073FEFFF7A2FE70BD000C01404243000826
:100CC0000020D94908700120D84908700020D8496F
:100CD00008704870704710B50821D648FFF7A8FD86
:100CE00000283ED0D048007830B1012808D0022832
:100CF00019D0052831D11FE00120CB4908702CE024
:100D0000CB48007818B90120C94908700AE0C848E2
:100D10000078012803D10220C549087002E00020B4
:100D2000C349087019E0C248407808B9012000E0C2
:100D30000020BF49487010E0BF4908684FF07C515F
:100D400002F06BFABC4908600868BC4902F0E2FB9B
:100D500002D2BA48B849086000BF00BF0120B349B9
:100D600008701021B348FFF763FD28B3AE48007840
:100D7000012804D0022806D0052819D107E0022056
:100D8000A949087014E00520A749087010E0AA4995
:100D900008684FF07C5102F092FAA7490860086891
:100DA000A74902F0ADFB02D2A548A349086000BFE5
:100DB00000BF01209D4908700121A248FFF753FDA3
:100DC00040B19948007810B100209749087001207F
:100DD0009649087010BD2DE9F0419448007808B993
:100DE000BDE8F081FFF709FE8F48007830B1012897
:100DF0007ED002287DD005287CD1D3E092A20121AB
:100E00000846FFF746FE8A48007828B990A20621D6
:100E10000120FFF73EFE11E085480078012804D14B
:100E20008DA20621FFF735FE08E0814800780228F0
:100E300004D18BA206210120FFF72BFE8AA20121FB
:100E40000220FFF726FE8A48006802F0FCFA0446FA
:100E50000223224606211846FFF739FE85A2082103
:100E60000220FFF716FE8248006802F0ECFA804686
:100E700002F0CFFA07467E480168384602F022FAAF
:100E800006467D4902F021FA054602F0DCFA0446E6
:100E90000123224609210220FFF719FE77A20A2129
:100EA0000220FFF7F6FD76A201210320FFF7F1FDF6
:100EB0006149086802F0C7FA044602232246082165
:100EC0000320FFF704FE6BA20A210320FFF7E1FDD8
:100ED0005949086802F0B7FA804602F09AFA0746C4
:100EE00055480168384602F0EDF90446624902E0CF
:100EF00023E043E08CE002F0E8F9064602F0A3FAB2
:100F0000054601232A460B210320FFF7E0FD5BA2E3
:100F10000C210320FFF7BDFD5BA201210420FFF798
:100F2000B8FD4348407808B159A000E059A00246F6
:100F300007210420FFF7ADFD6AE057A20121084612
:100F4000FFF7A7FD3A48007828B957A201210220EF
:100F5000FFF79FFD11E036480078012805D155A222
:100F600001210220FFF795FD07E0314800780228B3
:100F700003D152A20121FFF78CFD49E051A20121CA
:100F80000846FFF786FD2A48407828B151A2012182
:100F90000220FFF77EFD04E050A201210220FFF7AE
:100FA00078FD35E04FA201210846FFF772FD224986
:100FB000086802F048FA0446022322460121184636
:100FC000FFF785FD2BA203210220FFF762FD1A49DE
:100FD000086802F038FA804602F01BFA0746164805
:100FE0000168384602F06EF90646234902F06DF9B1
:100FF000054602F028FA0446012322460421022075
:10100000FFF765FD1DA205210220FFF742FD00BF8D
:1010100000BF00200549087000BFE1E610B5FFF7EA
:101020005AFEFFF7D8FE10BD1C0800201D08002046
:101030001E080020001801404408002000000C4257
:1010400000007041000801404D6F64653A000000E7
:101050005374616E64627900436F6F6C000000002E
:10106000486561740000000054656D703A0000002E
:10107000180800202E00000000002041430000005E
:101080005461726765743A0048756D69643A00008E
:101090004F4E00004F46460053656C656374204D0B
:1010A0006F64653A000000002D3E205374616E6449
:1010B000627900002D3E20436F6F6C002D3E20486A
:1010C0006561740048756D696420436F6E74726F5A
:1010D0006C3A00002D3E204F4E0000002D3E204F68
:1010E00046460000536574205461726765743A0087
:1010F00008B50121042000F009FF4020ADF80000F0
:1011000018208DF8030003208DF8020069461F485F
:1011100000F040FC08BD00B587B00121022000F0BE
:1011200002FF40F2F310ADF8140041F61F40ADF895
:1011300010000020ADF81600ADF812008DF8180070
:1011400004A9134801F01EFA6020ADF80000012048
:10115000ADF802000020ADF808000E480088ADF898
:10116000060069460A4801F04AFA0821084801F0D9
:1011700095FE0121064801F061FD07B000BD10B5E4
:10118000FFF7B6FFFFF7C7FF10BD000000080140E2
:1011900000040040200800203B483C4908603C48CF
:1011A00088603C4808613C48486100208863486486
:1011B0008861C8610862704770B5FFF780FA3349EB
:1011C00048600A461168506802F079F804462F49D1
:1011D0008868214602F079F82C4988610A4611692D
:1011E000906802F072F80646214602F06EF8054655
:1011F0002648C169284602F010F82449C86108460B
:10120000816B204602F05BF80546204A51699068E0
:1012100002F05BF80646294602F057F81B490862BF
:101220000A46D169906901F0F8FF05461748016A3E
:10123000284601F0F2FF15494864C869174902F0D1
:1012400069F902D215481149C8611049C8691449A1
:1012500002F056F902D212480C49C8610B49486C99
:10126000104902F057F902D20E480849486407496C
:10127000486C002102F044F902D20020034948647E
:101280000248846370BD00000000884144080020CB
:101290000000F0416F12833ACDCCCC3D0000C84332
:1012A0000000C8C30000FA430EB50121042000F07D
:1012B0003AFE42F20F70ADF804004720ADF800008E
:1012C0000020ADF80600ADF80200124801F086F8E3
:1012D0006946104801F056F901210E4801F0AEFCB4
:1012E000012211460B4801F0C4FC0EBD10B50121CE
:1012F000084801F060FF084908700846007840B1CE
:101300000121044801F060FF04480088401C0349A3
:10131000088010BD000800402208002000080020BE
:1013200000B587B00121042000F0F0FD0121880301
:1013300000F0ECFD4FF40070ADF8180018208DF8A7
:101340001B0003208DF81A0006A9C64800F022FBF6
:101350004FF48060ADF8180004208DF81B0006A93A
:10136000C04800F017FB4FF4E13002900020ADF8C8
:101370000C00ADF80E00ADF81000ADF814000C2014
:10138000ADF8120002A9B84800F067FE25208DF8DC
:10139000040003208DF805008DF8060001208DF86B
:1013A000070001A800F02DFA012240F22551AE48B5
:1013B00000F0EBFE0121AC4800F0DBFE07B000BD01
:1013C00000B587B00121042000F0A0FD01214804F0
:1013D00000F0A9FD0420ADF8180018208DF81B00BE
:1013E00003208DF81A0006A99E4800F0D3FA0820C1
:1013F000ADF8180004208DF81B0006A9994800F0EC
:10140000C9FA4FF4E13002900020ADF80C00ADF8BD
:101410000E00ADF81000ADF814000C20ADF812006D
:1014200002A9924800F019FE26208DF8040003203E
:101430008DF8050002208DF8060001208DF80700C8
:1014400001A800F0DEF9012240F22551874800F0A2
:101450009CFE0121854800F08CFE07B000BD10B550
:1014600004462146804800F0F1FE00BF80217E48FE
:1014700000F05AFF0028F9D010BD10B504462146EF
:101480007A4800F0E3FE00BF8021784800F04CFF6E
:101490000028F9D010BD10B5044603E014F8010B84
:1014A000FFF7DDFF20780028F8D110BD10B5044605
:1014B00003E014F8010BFFF7E0FF20780028F8D1D3
:1014C00010BD70B504460D46E0B2FFF7C8FF2046D8
:1014D00070BD10B540F22551634800F03BFF80B16C
:1014E000614800F0B7FEC4B261480088B0F5C87F1B
:1014F00007DA5F4801880088401C5D4A10805D481B
:10150000445410BD10B540F22551584800F022FF58
:1015100080B1564800F09EFEC4B257480088B0F52E
:10152000C87F07DA544801880088401C524A10805E
:101530005248445410BD10B54FF4C8714F4801F0E3
:1015400061FE00204C49088010BD00B585B0012126
:10155000880300F0DBFC0121042000F0D7FC4FF4ED
:101560000070ADF8100018208DF8130003208DF8DE
:10157000120004A93B4800F00DFA4FF48060ADF86A
:10158000100004208DF8130004A9364800F002FA78
:101590004FF4E13000900020ADF80400ADF80600F3
:1015A000ADF80800ADF80C000C20ADF80A00694653
:1015B0002D4800F052FD01212B4800F0DAFD05B066
:1015C00000BD10B586B004460121480400F0ABFC14
:1015D0000121042000F09AFC0420ADF8140018202A
:1015E0008DF8170003208DF8160005A91D4800F09E
:1015F000D1F90820ADF8140004208DF8170005A9D2
:10160000184800F0C7F926208DF8000003208DF857
:10161000010002208DF8020001208DF803006846C9
:1016200000F0EFF801940020ADF80800ADF80A00D2
:10163000ADF80C00ADF810000C20ADF80E0001A9BB
:101640000A4800F00AFD012240F22551074800F047
:101650009CFD0121054800F08CFDFFF76CFF06B0F2
:1016600010BD000000080140003801400044004067
:10167000240800209008002026080020200A0020CE
:1016800010B56FF0040000F006F92E4800682E49EE
:10169000B0FBF1F02D4908700846007800EB4001DE
:1016A000C1EBC0104FF6FF7101EAC0002849088065
:1016B00010BD0146254A12784A434FF0E0235A6193
:1016C00000229A611A46126942F001021A6100BFB3
:1016D0004FF0E022106900F001021AB100F48032EC
:1016E000002AF5D04FF0E022126922F001024FF0FB
:1016F000E0231A6100229A6170470146144A128859
:101700004A434FF0E0235A6100229A611A46126957
:1017100042F001021A6100BF4FF0E022106900F0B0
:1017200001021AB100F48032002AF5D04FF0E02215
:10173000126922F001024FF0E0231A6100229A613F
:10174000704700000408002000127A0028080020DA
:101750002A0800201B48006840F080701949086082
:101760000020194948600846006840F00100086000
:10177000704715484068704731B50024FFF7EAFF0D
:10178000124800681249B0FBF1F0009900FB01F526
:1017900000BFFFF7EEFF034611E0FFF7EAFF024646
:1017A0009A420CD09A4202D9D01A044403E0C3F101
:1017B000FF30104404441346AC4200D300E0ECE791
:1017C00000BF38BDFCED00E0001000E00408002080
:1017D00040420F000648804706480047FEE7FEE704
:1017E000FEE7FEE7FEE7FEE7FEE7FEE7FEE7FEE7D1
:1017F000FF0300083101000831490143314A1160FB
:10180000704770B5002100230F22C47804B32D4C1B
:10181000246804F4E064C4F5E064210AC1F104031F
:10182000CA40447804FA03F1847814402143090142
:10183000254C0678A155047804F01F050124AC401E
:1018400005786D11AD0005F1E025C5F8004109E00E
:10185000047804F01F050124AC401C4D0678761175
:1018600045F8264070BD1A4A0A400243154B1B1F1B
:101870001A60704739B1134A121D12680243114BA6
:101880001B1D1A6006E00F4A121D126882430D4BA1
:101890001B1D1A607047042808D14FF0E021096928
:1018A00041F004014FF0E022116107E04FF0E02128
:1018B000096921F004014FF0E02211617047000036
:1018C0000000FA050CED00E000E400E080E100E03B
:1018D00080FFFF1F10B50446CC48844208D1012187
:1018E000042000F02DFB0021042000F029FB46E03D
:1018F000C748844208D10121082000F021FB0021C3
:10190000082000F01DFB3AE0C248844208D10121C2
:10191000102000F015FB0021102000F011FB2EE03C
:10192000BD48844208D10121202000F009FB00219C
:10193000202000F005FB22E0B848844208D10121B4
:10194000402000F0FDFA0021402000F0F9FA16E0F6
:10195000B348844208D10121802000F0F1FA00212F
:10196000802000F0EDFA0AE0AE48844207D1012160
:10197000801500F0E5FA0021A01500F0E1FA10BD95
:1019800010B50121084600F0DBFA0021012000F02B
:10199000D7FA10BD2DE9F0410246002500260020AF
:1019A00000230024002791F803C00CF00F0591F8E4
:1019B00003C00CF0100CBCF1000F03D091F802C072
:1019C0004CEA050591F800C0BCF1000F31D0146855
:1019D00000202BE04FF0010C0CFA00F3B1F800C02E
:1019E0000CEA03069E4220D183004FF00F0C0CFA44
:1019F00003F7BC4305FA03FC4CEA040491F803C066
:101A0000BCF1280F06D14FF0010C0CFA00FCC2F813
:101A100014C00AE091F803C0BCF1480F05D14FF0A3
:101A2000010C0CFA00FCC2F810C0401C0828D1D3ED
:101A30001460B1F800C0BCF1FF0F34DD5468002021
:101A40002EE000F1080C4FF0010808FA0CF3B1F891
:101A500000C00CEA03069E4221D183004FF00F0C18
:101A60000CFA03F7BC4305FA03FC4CEA040491F8B2
:101A700003C0BCF1280F05D100F1080C08FA0CF8DE
:101A8000C2F8148091F803C0BCF1480F07D100F1EF
:101A9000080C4FF0010808FA0CF8C2F81080401C3E
:101AA0000828CED35460BDE8F0814FF6FF71018065
:101AB000022181700421C1707047024600209368A2
:101AC0000B400BB1012000E0002070470146886800
:101AD00080B2704702460020D3680B400BB1012052
:101AE00000E0002070470146C86880B2704701617D
:101AF0007047416170470AB1016100E04161704780
:101B0000C16070474FF480320A4382618161826113
:101B100082698269704702460020434B18684FF67D
:101B20008073184040EA021008433F4B186070472A
:101B30003E49C8617047F0B50A46002300240021E1
:101B4000002500F00046B6F1004F02D1364EF16993
:101B500001E0354E7168C0F3034583B200F44016CE
:101B6000B6F5401F08D121F070612F4E766826F03F
:101B700070662D4F7E6012E000F48016B6F5801F6F
:101B800006D1032606FA05F4A14341F0706106E090
:101B9000460D360103FA06F6B14341F0706122B1F9
:101BA000460D360103FA06F6314300F00046B6F161
:101BB000004F02D11C4EF16101E01B4E7160F0BD7F
:101BC00030B500228B071C0F0F2303FA04F2164BCB
:101BD00008338C1053F824309343134C08348D1081
:101BE00044F8253023468C1053F824308C07240FFA
:101BF00000FA04F423430C4C08348D1044F82530CB
:101C000030BD0A49DC31086070470000000801401F
:101C1000000C014000100140001401400018014078
:101C2000001C014000200140000001400000204253
:101C3000DF48006840F00100DD4908600846406860
:101C4000DC490840DA49486008460068DA4908403B
:101C5000D74908600846006820F4802008600846DC
:101C6000406820F4FE0048604FF41F008860704711
:101C7000CF49096821F48031CD4A116011460968C5
:101C800021F480211160B0F5803F03D0B0F5802FA2
:101C90000ED106E0C649096841F48031C44A11609A
:101CA00007E0C349096841F4A021C14A116000E07E
:101CB00000BF00BF704710B501460022002300207E
:101CC0004A11012A02D1BA4C236806E0022A02D145
:101CD000B74C236A01E0B64C636A01F01F0201248D
:101CE00094401C400CB1012000E0002010BD38B52C
:101CF000002000900024002500BF3120FFF7DBFF0B
:101D000005460098401C00900098B0F5A06F01D0E7
:101D1000002DF2D03120FFF7CEFF08B1012400E002
:101D20000024204638BD01460020A14A106820F05A
:101D3000F80040EAC10010607047A0490860704791
:101D4000024600209A4B586820F47C1042EA0103B6
:101D50001843974B5860704798490866704701468A
:101D60000020934A506820F00300084350607047F9
:101D70008F48406800F00C007047014600208C4AF4
:101D8000506820F0F0000843506070470146002082
:101D9000874A506820F4E06008435060704701466D
:101DA0000020834A506820F4605040EAC10050602F
:101DB000704729B17E4A527A02437D4B5A7204E041
:101DC0007B4A527A82437A4B5A7270477B49D831A8
:101DD0000860704701460020754A506820F4404072
:101DE0000843506070470021714A20321170704AD8
:101DF00082F82010012802D004280AD104E0012131
:101E00006B4A2032117005E00521694A20321170B9
:101E100000E000BF00BF704769490860704764492F
:101E2000096A0143624A1162704765494439086092
:101E3000704730B500210022002400235C4D6D68FE
:101E400005F00C0121B1042905D0082923D105E0B2
:101E50005C4D056022E05B4D05601FE0544D6D68F0
:101E600005F47012524D6D6805F48034022505EBBF
:101E700092421CB9544D554305600BE04C4D6D68C2
:101E800005F400351DB1504D5543056002E04D4D40
:101E90005543056002E04B4D056000BF00BF444D57
:101EA0006D6805F0F0010909484D6B5C0568DD407F
:101EB00045603F4D6D6805F4E061090A434D6B5C78
:101EC0004568DD4085603A4D6D6805F46051C90A8A
:101ED0003E4D6B5C4568DD40C560354D6D6805F471
:101EE0004041890B3A4D6B5CC568B5FBF3F5056164
:101EF00030BD29B12E4A526902432D4B5A6104E08C
:101F00002B4A526982432A4B5A61704729B1284AA9
:101F100092690243264B9A6104E0254A9269824302
:101F2000234B9A61704729B1214AD2690243204B61
:101F3000DA6104E01E4AD26982431D4BDA617047C0
:101F400029B11B4AD2680243194BDA6004E0184AEF
:101F5000D2688243164BDA60704729B1144A12697D
:101F60000243134B1A6104E0114A12698243104B79
:101F70001A61704712494039086070470F49C864B8
:101F800070470B49C87170470948406A40F080703B
:101F900007494862704701460020054A92680A4096
:101FA0000AB1012000E000207047014988727047A3
:101FB000001002400000FFF8FFFFF6FE0000424262
:101FC0008004424200127A0000093D002C080020E3
:101FD0003C08002010B50446FB48844209D1012189
:101FE0008803FFF7ADFF00214FF48040FFF7A8FF03
:101FF00032E0F648844209D101214804FFF7ADFFE1
:1020000000214FF40030FFF7A8FF25E0F04884429C
:1020100009D101218804FFF7A0FF00214FF480209F
:10202000FFF79BFF18E0EB48844209D10121C80467
:10203000FFF793FF00214FF40020FFF78EFF0BE026
:10204000E548844208D101210805FFF786FF0021F9
:102050004FF48010FFF781FF10BD2DE9F04786B0E7
:1020600005460E460024A24600BFA1460027B089BF
:1020700000B100BF2F462C8A4CF6FF700440F08858
:1020800004432C82AC894EF6F3100440B0883189A9
:102090000843718908430443AC81AC8A4FF6FF4082
:1020A0000440B0890443AC8201A8FFF7C2FEC648D1
:1020B000874202D1DDF810A001E0DDF80CA0A8896C
:1020C00000F4004040B10AEBCA0000EB0A1031688E
:1020D0004900B0FBF1F807E00AEBCA0000EB0A1078
:1020E00031688900B0FBF1F86420B8FBF0F004011E
:1020F0002009642101FB1089A88900F4004040B147
:10210000322000EBC900B0FBF1F000F007000443FF
:1021100008E0322000EB09106421B0FBF1F000F080
:102120000F0004432C8106B0BDE8F0874FF4165130
:10213000016000218180C18001810C214181002149
:102140008181704710B502460020108A4FF2FF03CC
:1021500018400B884C8823438C882343CC88234326
:102160001843108210BD0021018041808180C18010
:10217000704721B1828942F40052828104E0828951
:102180004DF6FF731A4082817047F0B50346002474
:1021900000260025002040F66A17B94200D100BF92
:1021A0001846C1F3421401F01F06012707FA06F58D
:1021B000012C01D10C3004E0022C01D1103000E0E0
:1021C00014301AB107682F43076002E00768AF4375
:1021D0000760F0BD1AB1838A0B43838202E0838AD1
:1021E0008B4383827047028A4FF6F0731A40028253
:1021F000028A0A430282704782894FF2FF731A40B3
:10220000828182890A438281704721B1828942F0AA
:102210000202828104E082894FF6FD731A408281B6
:102220007047028A4FF6DF731A400282028A0A431D
:102230000282704721B1028A42F48042028204E0A5
:10224000028A4BF6FF731A4002827047C1F30802FC
:102250008280704701468888C0F3080070478189F2
:1022600041F0010181817047028BD2B20283028B5F
:1022700042EA012202837047028B02F47F4202830A
:10228000028B0A430283704721B1828A42F0200206
:10229000828204E0828A4FF6DF731A40828270479E
:1022A00021B1828A42F01002828204E0828A4FF6D3
:1022B000EF731A408282704721B1828A42F008028D
:1022C000828204E0828A4FF6F7731A408282704756
:1022D00021B1828942F40042828103E08289C2F303
:1022E0000E028281704721B1828A42F400628282AA
:1022F00004E0828A4FF2FF731A4082827047828A1A
:102300004FF6FB731A408282828A0A4382827047A8
:1023100021B1828A42F00202828204E0828A4FF670
:10232000FD731A408282704702460020B1F5007F9B
:1023300000D100BF13880B400BB1012000E000204A
:10234000704701F40072B2F5007F00D100BFCA43AC
:102350000280704770B5024600240023002500204B
:1023600040F66A16B14200D100BFC1F3421501F038
:102370001F03012606FA03F3012D02D1968933408B
:1023800006E0022D02D1168A334001E0968A3340DE
:102390000C12012606FA04F41688344013B10CB16D
:1023A000012000E0002070BD10B50022002340F69F
:1023B0006A14A14200D100BF0A1201249440A3B2C2
:1023C000DC43048010BD00000038014000440040A0
:1023D00000480040004C00400050004010B504464A
:1023E000FE48844208D10121C014FFF7A9FD002155
:1023F000E014FFF7A5FDC4E0B4F1804F08D101213E
:102400000846FFF7AAFD00210120FFF7A6FDB8E06E
:10241000F348844208D101210220FFF79EFD0021EC
:102420000220FFF79AFDACE0EE48844208D101217A
:102430000420FFF792FD00210420FFF78EFDA0E0AD
:10244000E948844208D101210820FFF786FD0021D8
:102450000820FFF782FD94E0E448844208D101217E
:102460001020FFF77AFD00211020FFF776FD88E0AD
:10247000DF48844208D101212020FFF76EFD0021B2
:102480002020FFF76AFD7CE0DA48844208D1012170
:102490004014FFF755FD00216014FFF751FD70E077
:1024A000D548844209D10121C804FFF749FD002124
:1024B0004FF40020FFF744FD63E0D048844209D187
:1024C00001210805FFF73CFD00214FF48010FFF7C4
:1024D00037FD56E0CA48844209D101214805FFF77B
:1024E0002FFD00214FF40010FFF72AFD49E0C548F9
:1024F000844208D101214020FFF72FFD0021402018
:10250000FFF72BFD3DE0C048844208D10121802027
:10251000FFF723FD00218020FFF71FFD31E0BB48BE
:10252000844208D101218015FFF717FD0021A01575
:10253000FFF713FD25E0B648844209D101210804C4
:10254000FFF7FEFC00214FF48030FFF7F9FC18E0A4
:10255000B048844209D101214804FFF7F1FC002171
:102560004FF40030FFF7ECFC0BE0AB48844208D19D
:1025700001218804FFF7E4FC00214FF48020FFF7DD
:10258000DFFC10BD00220288944B98420ED0994B7C
:1025900098420BD0B0F1804F08D0914B984205D0B3
:1025A000904B984202D0904B984204D14FF68F73D3
:1025B0001A404B881A438D4B984207D08C4B984257
:1025C00004D04FF6FF431A40CB881A4302808B8811
:1025D00083850B880385814B98420BD0854B9842AD
:1025E00008D08B4B984205D08A4B984202D08A4B38
:1025F000984201D10B7A038601238382704770B51C
:10260000002400220023058C4FF6FE763540058419
:10261000028C8388048B4FF68F752C40B51E2C409E
:102620000D882C43751E2A400D892A434D882A4364
:102630006A4DA8420BD06F4DA84208D0744DA842F5
:1026400005D0744DA84202D0734DA84213D14FF665
:10265000F7752A404D892A434FF6FB752A408D882D
:102660002A434FF6FF652B404FF6FF552B408D89CF
:102670002B43CD892B4383800483CD8885860284B8
:1026800070BD70B5002400220023058C4FF6EF7654
:1026900035400584028C8388048B48F6FF752C40F6
:1026A0004FF6FF452C400D884FF6FF7606EA0525CC
:1026B0002C434FF6DF752A400D8906EA05152A439B
:1026C0004D8806EA05152A43444DA84202D0494DDB
:1026D000A8421DD14FF67F752A404D894FF6FF76EF
:1026E00006EA05152A434FF6BF752A408D8806EA8B
:1026F00005152A434FF6FF352B404FF2FF752B404F
:102700008D8906EA85052B43CD8906EA85052B438D
:1027100083800483CD880587028470BD70B5002452
:1027200000220023058C4FF6FF6635400584028C9D
:102730008388848B4FF68F752C404FF6FC752C40A8
:102740000D882C434FF6FF552A400D894FF6FF7632
:1027500006EA05252A434D8806EA05252A431F4D2A
:10276000A84202D0234DA8421DD14FF2FF752A4046
:102770004D894FF6FF7606EA05252A434FF6FF35C9
:102780002A408D8806EA05252A434EF6FF752B4020
:102790004DF6FF752B408D8906EA05152B43CD8933
:1027A00006EA05152B4383808483CD8885870284C0
:1027B00070BD70B5002200230024058C4EF6FF7614
:1027C00035400584038C8488828B48F6FF752A4047
:1027D0004FF6FF452A400D8820E00000002C014004
:1027E0000004004000080040000C004000100040C1
:1027F0000014004000340140004C014000500140F2
:102800000054014000180040001C0040002000401F
:102810000040014000440140004801404FF6FF766F
:1028200006EA05252A434DF6FF752B400D8906EA79
:1028300005352B434D8806EA05352B43FA4DA84252
:1028400002D0FA4DA84208D14BF6FF752C408D8975
:102850004FF6FF7606EA85152C4384808283CD8867
:10286000A0F84050038470BD828B4FF2FF331A40B2
:102870008283828B4FF6FF7303EA01231A4382831C
:102880007047F0B50C461546002200210026078C43
:102890004EF6FF7C07EA0C070784828B018C4FF60B
:1028A000FF7707EA043640F6FF473A404FF6FF77D6
:1028B00007EA05273A434FF6FF7707EA03373A431B
:1028C000D94FB8420ED0D94FB8420BD0B0F1804F9B
:1028D00008D0D74FB84205D0D64FB84202D0D64F15
:1028E000B84206D14DF6FF77394046F48057394358
:1028F00005E047F6FF57394044F480573943828357
:102900000184F0BD828B4FF6F3731A408283828B71
:102910000A4382837047F0B50C4615460022002119
:102920000026078C4FF6FF6C07EA0C070784828BA2
:10293000018C4FF6FF7707EA04264FF60C773A40F2
:102940004FF6FF7707EA03172F433A43B64FB842D3
:102950000ED0B64FB8420BD0B0F1804F08D0B44F74
:10296000B84205D0B34FB84202D0B34FB84206D1F7
:102970004FF6FF57394046F48077394305E04FF270
:10298000FF57394044F48077394382830184F0BD96
:10299000028B4FF2FF331A400283028B4FF6FF7314
:1029A00003EA01231A4302837047F0B50C4615462B
:1029B000002200210026078C4FF6EF7C07EA0C0767
:1029C0000784028B018C4FF6FF7707EA041640F666
:1029D000FF473A404FF6FF7707EA03373A434FF68F
:1029E000FF7707EA05273A438F4FB8420ED08F4F43
:1029F000B8420BD0B0F1804F08D08D4FB84205D00F
:102A00008C4FB84202D08C4FB84206D14FF6DF77D8
:102A1000394046F01007394305E04FF65F773940FB
:102A200044F01007394302830184F0BD028B4FF656
:102A3000F3731A400283028B0A4302837047F0B596
:102A40000C46154600220021068C4FF6FE773E40CC
:102A50000684028B018C4FF60C7632407E1C06EA0F
:102A600003162E433243704EB0420ED06F4EB0422A
:102A70000BD0B0F1804F08D06D4EB04205D06D4EF6
:102A8000B04202D06C4EB04206D14FF6FD763140D6
:102A900044F00106314305E04FF6F576314044F04D
:102AA0000106314302830184F0BD70B505460C4632
:102AB0005D4885420ED05D4885420BD0B5F1804F10
:102AC00008D05B48854205D05A48854202D05A4812
:102AD000854200D100E000BF208850B92389A28838
:102AE00061882846FFF7ABFFE1882846FFF79EFF85
:102AF00025E0208804280AD12389A28861882846F5
:102B0000FFF753FFE1882846FFF742FF17E02088D0
:102B100008280AD12389A28861882846FFF7FBFE8E
:102B2000E1882846FFF7EEFE09E02389A288618844
:102B30002846FFF7A6FEE1882846FFF795FE70BD00
:102B40002DE9F04105460C4600260127608808B9AA
:102B5000022600E00026A088012801D1022700E01B
:102B600001272088A0B92389A28861882846FFF719
:102B700066FFE1882846FFF759FF23893A46314628
:102B80002846FFF712FFE1882846FFF701FF13E010
:102B90002389A28861882846FFF707FFE188284635
:102BA000FFF7F6FE23893A4631462846FFF747FFEE
:102BB000E1882846FFF73AFFBDE8F0810A884B8894
:102BC0001A438B881A43CB881A430B891A434B89C3
:102BD0001A438B891A43A0F8442070474FF6FF71BF
:102BE000818000210180C1804180017270470021F5
:102BF000018041808180C180018141818181C181C9
:102C00007047002101804180012181800021C18025
:102C1000018170470021018041808180C180018154
:102C20004181818170470000002C01400034014047
:102C30000004004000080040000C004021B1028860
:102C400042F00102028004E002884FF6FE731A404F
:102C50000280704731B1B0F8442042F40042A0F83D
:102C6000442005E0B0F84420C2F30E02A0F844204E
:102C700070471AB183890B43838102E083898B43B8
:102C8000838170478182704741EA0203A0F848308F
:102C900070471AB183890B43838102E083898B4398
:102CA0008381704701894FF6F872114001817047A6
:102CB0000A46002101894FF68F73194011430181A3
:102CC000704730B504460D4629462046FFF7F0FF11
:102CD000208940F00700208130BD2DE9F0410446F5
:102CE0000D4616461F46602D06D13B460122314651
:102CF0002046FFF75AFE05E03B46012231462046BA
:102D0000FFF79DFE29462046FFF7D2FF208940F0BD
:102D100007002081BDE8F08130B50C460021018913
:102D2000C9B24FF6FF7505EA03251543254329432C
:102D3000018130BD2DE9F04105460E461746984603
:102D4000002443463A4631462846FFF7E5FF2C89E2
:102D50004FF6F870044044F007044FF68F700440BB
:102D600044F070042C81BDE8F081F0B504460D46B6
:102D700016461F463B46324629462046FFF7CCFF03
:102D8000208940F480402081F0BD01858282704717
:102D90000A46002101884FF68F73194011430180C4
:102DA0007047F0B50C4615461E4600210022002350
:102DB0000189028B038C4FF6F877394021434FF697
:102DC000FC473A4040F201173A434FF6DD773B406B
:102DD0004FF6FF7707EA06172F433B430181028333
:102DE0000384F0BD0A460021018B4FF68F73194012
:102DF0001143018370470A460021018B48F6FF7397
:102E000019404FF6FF7303EA022319430183704709
:102E10000A460021818B4FF68F731940114381833D
:102E200070470A460021818B48F6FF7319404FF620
:102E3000FF7303EA022319438183704721B102889B
:102E400042F08002028004E002884FF67F731A404D
:102E50000280704721B1828842F00402828004E03F
:102E600082884FF6FB731A408280704721B18288B6
:102E700042F00802828004E082884FF6F7731A401D
:102E80008280704721B1828842F00102828004E092
:102E900082884FF6FE731A40828070470A460021EE
:102EA000018B4FF6F77319401143018370470A46AF
:102EB0000021018B4FF2FF7319404FF6FF7303EAB5
:102EC00002231943018370470A460021818B4FF684
:102ED000F77319401143818370470A460021818BA3
:102EE0004FF2FF7319404FF6FF7303EA02231943B1
:102EF000818370470A460021018B4FF6FB7319400E
:102F00001143018370470A460021018B4FF6FF33BE
:102F100019404FF6FF7303EA0223194301837047F8
:102F20000A460021818B4FF6FB73194011438183C0
:102F300070470A460021818B4FF6FF3319404FF648
:102F4000FF7303EA02231943818370470A46002175
:102F5000018B4FF67F7319401143018370470A4676
:102F60000021018BC1F30E014FF6FF7303EA022328
:102F70001943018370470A460021818B4FF67F7306
:102F800019401143818370470A460021818BC1F3A8
:102F90000E014FF6FF7303EA022319438183704742
:102FA0000A460021018C4FF6FD731940114301843C
:102FB00070470A460021018C4FF6F7731940114300
:102FC000018470470A460021018C4FF6DF731940D7
:102FD0004FF6FF7303EA02131943018470470A4650
:102FE0000021018C4FF67F7319404FF6FF7303EAFF
:102FF00002131943018470470A460021018C4FF6E1
:10300000FF5319404FF6FF7303EA0223194301846B
:1030100070470A460021018C4FF2FF7319404FF6AA
:10302000FF7303EA02231943018470470A46002113
:10303000018C4DF6FF7319404FF6FF7303EA02331C
:1030400019430184704730B5002301248C40A3B29A
:10305000048C9C430484048C02FA01F5ADB22C4329
:10306000048430BD30B5002304248C40A3B2048C0A
:103070009C430484048C02FA01F5ADB22C43048411
:1030800030BD70B5034600200024184618300125D5
:103090008D40ACB21D8CA5431D8409B1082909D10E
:1030A00000EB6100056825F07005056005681543B3
:1030B00005600EE00D1FC5F34E052844056825F494
:1030C000E045056005684FF6FF7606EA02263543BF
:1030D000056070BD21B1028842F00202028004E066
:1030E00002884FF6FD731A400280704721B10288B2
:1030F00042F00402028004E002884FF6FB731A409B
:103100000280704721B1828842F08002828004E010
:1031100082884FF67F731A408280704702884FF68C
:10312000F7731A40028002880A430280704782883F
:103130004FF68F731A40828082880A4382807047DC
:1031400002894FF6F8731A40028102890A4302810C
:10315000704702894FF67F731A40028102890A4341
:1031600002817047818470478185704781867047EE
:103170000187704781877047A0F840107047028828
:103180004FF6FF431A40028002880A4302807047CC
:103190000146888E70470146088F70470146888F28
:1031A00070470146B1F8400070470146888C70476F
:1031B0000146088D704702460020138A0B400BB170
:1031C000012000E000207047CA430282704730B5FA
:1031D0000246002000230024158A05EA0103958990
:1031E00005EA010413B10CB1012000E0002030BD5C
:1031F000CA4302827047D2B201E000F8012B491E97
:10320000FBD270470022F6E710B513460A46044683
:103210001946FFF7F0FF204610BDF0B480EA010226
:10322000D40F4200B2EB410F02D2024608461146CB
:103230004A0042D0C30DDDB2C1F3C752AD1A202DF2
:1032400035DAC1F3160141F4000204B15242C5F16E
:10325000200602FA06F12A411044B3EBD05F23D0D6
:10326000C4B1012DA0EBC35009DCF0BC4FF000420B
:1032700002EAC352DBB200F5000000F0A5B940003D
:1032800000F1807000EBC350A0F1807040EAD17073
:10329000490009E0490841EAC071A0EBC35000F5BC
:1032A0000000400800EBC350F0BC00F084B961425C
:1032B000012202EB4101001BF6E7F0BC704781F0F0
:1032C0000041AAE780F00040A7E780EA010210B5BC
:1032D00002F00043400022D04A001FD0010E01EB53
:1032E0001261C0F35600C2F3560240F4000042F4EB
:1032F0000002A0FB022000047F39140400D0401C0F
:1033000050EA124001D44000491EC2B20C0604EB40
:10331000D010401C4008802A02D003E0002010BDDD
:1033200020F00100002900DA0020184310BD2DE92B
:10333000FE4F81EA030404F0004421F000410094B0
:103340004FF0000B23F0004350EA01045ED052EA34
:1033500003045BD0C3F30A54C1F30A552C44A4F20E
:10336000F3340194A0FB0254C1F3130141F4801122
:10337000C3F3130343F4801301FB024400FB034E29
:10338000840A970A44EA815447EA8357A4FB0768F2
:1033900002958D0A05FB07854FEA932C04FB0C541C
:1033A0002705029D4FEA065847EA1637B5EB080590
:1033B0006EEB070C870E920E47EA811742EA8312E2
:1033C000A7FB0201B6EB0B0164EB00042B0D43EAF3
:1033D0000C335E1844EB1C50DA465146E7FB020101
:1033E000C5F313044FEA0B3343EA14534FEA043294
:1033F000019C43EA0603A4F10C040294009CCDE96D
:1034000000B400F01EF903B0BDE8F08F00200146C3
:10341000F9E7C10F80EAE0700844CA07962300214B
:1034200000F0D2B80EB5C10F80EAE0700844CA07B8
:10343000002140F233438DE80E000A460B4600F0AF
:1034400000F903B000BD00F0004220F00040C10DC3
:10345000C0F3160040F400007F2901DA0020704715
:10346000962903DCC1F19601C84001E096398840F5
:10347000002AF4D04042704720F00040C10DC0F354
:10348000160040F400007F2901DA002070479629D9
:1034900003DCC1F19601C8407047963988407047F7
:1034A00000F0004230F000400AD0C10D01F560711B
:1034B000C0F3160042EA0151C208400711437047A9
:1034C00000200146704701F0004330B421F0004174
:1034D00050EA010206D00A0DA2F56072C1F3130191
:1034E000002A02DC30BC00207047440F44EAC104CB
:1034F000C100E01830BC00EBC25000F05CB8000026
:10350000002801DBC0F10040002901DBC1F10041CE
:1035100081427047002801DBC0F10040002901DB37
:10352000C1F100418842704730B50B46014600208A
:103530002022012409E021FA02F59D4205D303FA75
:1035400002F5491B04FA02F52844151EA2F10102F6
:10355000F1DC30BD2DE9F05F0546002092469B4628
:1035600088460646814640241BE028464146474699
:10357000224600F01CFA53465A46C01A914110D315
:1035800011461846224600F003FA2D1A67EB01088F
:103590004F4622460120002100F0FAF917EB0009FE
:1035A0004E41201EA4F10104DFDC484631462A4684
:1035B0004346BDE8F09F0029A8BF7047401C490062
:1035C00008BF20F00100704710B4B0FA80FC00FA88
:1035D0000CF050EA010404BF10BC704749B1CCF1B3
:1035E000200421FA04F411FA0CF118BF012121433F
:1035F0000843A3EB0C01CB1D4FEA00614FEA1020FA
:1036000042BF002010BC704700EBC350104400299B
:10361000A4BF10BC7047401C490008BF20F0010047
:1036200010BC704710B5141E73F1000408DA401C7A
:1036300041F1000192185B411A4301D120F00100D1
:1036400010BD2DE9F04D92469B4611B1B1FA81F2C1
:1036500002E0B0FA80F22032904600F099F9044678
:103660000F4640EA0A0041EA0B0153465A46084316
:1036700013D0114653EA010019D0C8F14002504658
:1036800000F095F905460E4650465946424600F070
:103690007FF9084305D0012004E020463946BDE803
:1036A000F08D0020054346EAE0762C4337430A9824
:1036B0006305E40AA0EB08000022FD0A44EA47542F
:1036C0000A3002D500200146E9E7010510196941D9
:1036D000DDE9084500196941BDE8F04DA2E72DE993
:1036E000FE4F804681EA0300C00F0C46009021F097
:1036F000004123F00045B8EB0200A94105D2404645
:10370000214690461C460B46024623F000401043DB
:1037100047D0270DC7F30A00C3F30A510290401A9D
:10372000019040286BDAC3F3130040F4801B00982B
:10373000924620B10023D2EB030A63EB0B0B0198F6
:103740005946C0F14002504600F022F906460D46A7
:1037500050465946019A00F03AF910EB08006141D1
:10376000002487EA115284EAE7731A4340D0009A92
:1037700062B3019A012A4FEA075215DC001B61EB84
:1037800002014FF0004202EA0752CDE90042001C5C
:1037900041F5801132462B46FFF753FF03B0BDE8D9
:1037A000F08F40462146F9E7001B61EB0201001C47
:1037B00041F5801300185B412018A2F5001747EB74
:1037C000030140EAD570B6196D4111E06D084FEA6A
:1037D000360645EAC0754FEA0752001B61EB02014D
:1037E000001C41F5801149084FEA30000019514191
:1037F00032462B4603B0BDE8F04FFFF713BF0098E9
:10380000012240000023D0EB020263EBE07300983A
:1038100021464FEAE074B8EB000061EB0401E9E7F0
:1038200083F000435BE781F0004158E72DE9F04D5C
:1038300081EA030404F0004B21F0004514464FF0E8
:10384000000A23F0004150EA050220D054EA0102A8
:103850001DD0C5F30A570246C5F31303C1F3130085
:10386000C1F30A5640F4801543F48013A7EB060811
:10387000101BD64608F2FD3873EB050002D308F1A1
:10388000010801E092185B41B8F1000F03DA002053
:103890000146BDE8F08D00204FF4801106468446B5
:1038A0000EE0171B73EB050705D3121B63EB050333
:1038B00006434CEA010C49084FEA300092185B417C
:1038C00050EA0107EDD152EA030012D082EA040067
:1038D00083EA0501084305D0101BAB4106D2012243
:1038E000002306E000224FF0004302E06FF00102E7
:1038F00053101AEB06004CEB085110EB0A0041EB99
:103900000B01BDE8F04DFFF78DBEC1F30A52C1F3C4
:10391000130140F2FF3341F480119A4202DA002091
:103920000146704740F233439A42A2F2334202DC2E
:10393000524200F03CB800F02BB8000030B5041E35
:1039400071F1000404DB4FF00044404264EB0101DC
:10395000141E73F1000405DB1C464FF00043524275
:1039600063EB0403994208BF904230BD064C074DFB
:1039700006E0E06840F0010394E80700984710343F
:10398000AC42F6D3FCF7D8FB344900085449000890
:10399000202A04DB203A00FA02F10020704791400F
:1039A000C2F1200320FA03F3194390407047202A04
:1039B00004DB203A21FA02F00021704721FA02F3D9
:1039C000D040C2F120029140084319467047202A96
:1039D00006DBCB17203A41FA02F043EAE07306E037
:1039E00041FA02F3D040C2F1200291400843194647
:1039F000704770B58D1810F8014B14F0030201D117
:103A000010F8012B231106D110F8013B03E010F848
:103A1000016B01F8016B521EF9D1ABB110F8012B0B
:103A200004F00C048A1A0C2C03D0A2EB84129B1C09
:103A300008E010F8014BA2EB0422F8E712F8014B62
:103A400001F8014B5B1EF9D5A942D4D3002070BD0B
:103A50000FB4054B10B503A9044A029800F0DAF838
:103A600010BC5DF814FB0000C314000840080020DF
:103A700002E008C8121F08C1002AFAD17047704737
:103A8000002001E001C1121F002AFBD17047000095
:103A90002DE9FF5F82B00021DDE90430020DDDF881
:103AA00040B0034318D044F61050A2F2FF32424314
:103AB0001514119801281FD0A5EB0B00401C5FEADC
:103AC000000A4FF000064E4FDFF83891B0465046DE
:103AD00015D5CAF1000413E0119801244AA3012866
:103AE00001D16FEA0B010298119AC0E90031C0E9D7
:103AF000024206B0BDE8F09FCBF10000DFE70446CC
:103B00000021404A491842EB0450CDE9001012E070
:103B1000E00707D032463B4640464946FFF707FCE0
:103B20008046894632463B4610461946FFF7FFFB62
:103B300006460F466410002CEAD1DDE90401DDE9F8
:103B40000023BAF1000F06DAFFF7F1FB42464B46BD
:103B5000FFF7EDFB05E0FFF769FE42464B46FFF736
:103B600065FE04460E460022284BFFF7E7FE03D809
:103B70004FF0FF30014607E00022254B204631463A
:103B8000FFF7ADFDFFF7C1FE102409E0002C0ADBB2
:103B90000A220023FFF7DEFC039B30321A55641E15
:103BA00050EA0102F2D1641C039AC4F111031444D7
:103BB000119A012A03D0012208430DD10AE00843DB
:103BC00004D000204FF0110B119072E7A3EB0B050E
:103BD0006D1E0DE05B4504DD4FF0000205F10105AF
:103BE00004E003DA4FF00002A5F10105002AECD051
:103BF00002981199C0E90231C0E9004579E7000057
:103C0000000014400000F03F300000000000F043CE
:103C10000000E03F2DE9FF4F95B09B4689460646E0
:103C200000250FE2252877D100242746F84A0121F4
:103C3000059400E0044316F8013F203B01FA03F02D
:103C40001042F7D130782A2811D06FF02F03307846
:103C5000A0F13002092A16D8059A44F0020402EBBA
:103C6000820203EB42021044761C0590EFE759F8FC
:103C7000042B0592002A03DA504244F400540590C4
:103C800044F00204761C30782E2816D116F8010F65
:103C900044F004042A280DD06FF02F023078A0F1F0
:103CA0003003092B09D807EB870302EB4303C7183E
:103CB000761CF3E759F8047B761C30786C280FD01B
:103CC00006DC4C2817D068280DD06A2814D104E0EF
:103CD000742810D07A280FD10DE044F400140AE0C3
:103CE00044F4801401E044F440147278824202D11A
:103CF00004F58014761C761C307866280BD013DC13
:103D0000582877D009DC002875D04528F6D04628F9
:103D1000F4D047281AD19DE118E0632835D06428F3
:103D200079D0652812D195E1702873D008DC672816
:103D3000F1D069286FD06E280DD06F2806D1B5E07C
:103D400073282CD0752875D0782874D05A461799C6
:103D500090476D1C75E1C4F30250022809D0032876
:103D60000DD0D9F8001004280DD00D6009F1040918
:103D700067E1D9F80010EA17C1E90052F6E7D9F86F
:103D800000100D80F2E70D70F0E719F8041B8DF8B4
:103D9000001000208DF80100EA46012003E059F8E8
:103DA00004AB4FF0FF3061074FF0000102D40DE08B
:103DB00008F101018846B9420FDA8045F8DB1AF8AC
:103DC00008100029F4D108E008F101018846814279
:103DD000FADB1AF808100029F6D105985B46A0EB2B
:103DE000080721463846179A00F094FA284400EB59
:103DF000080507E04DE029E10DE01AF8010B5A46ED
:103E000017999047B8F10108F7D25B46214638462A
:103E1000179A13E142E00A220092C4F302524FF0D3
:103E2000000A022A08D059F804CB032A4FEAEC71A1
:103E30000AD00DE029E02AE009F1070121F007028C
:103E4000F2E802C1914609E00FFA8CFC4FEAEC71EE
:103E5000042A03D14FFA8CFC4FEAEC71002907DAEF
:103E60000A460021DCF1000C61EB02012D2202E088
:103E7000220504D52B228DF80420012203E0E2075D
:103E800001D02022F7E7904659E00A2102E01022F3
:103E90000DE010214FF0000A00910BE010224FF0CE
:103EA000000A44F004040827009203E008224FF0BF
:103EB000000A0092C4F30252022A05D059F804CB3A
:103EC0000021032A08D009E009F1070121F00702C7
:103ED000F2E802C1914605E01FFA8CFC042A01D1E8
:103EE0000CF0FF0C4FF00008220728D5702806D0F0
:103EF000009B83F0100353EA0A0305D00EE0402232
:103F00008DF80420012208E05CEA010206D030228C
:103F10008DF804208DF8050002229046009B83F066
:103F2000080353EA0A030AD15CEA010201D16207DD
:103F300005D530228DF804204FF001087F1E582847
:103F400004D034A003900EA802900DE036A0F9E74B
:103F500053466046009AFFF7FDFA84460398825C58
:103F60000298401E029002705CEA0100F0D10298B3
:103F700006A9081A00F1200A600702D524F480344B
:103F800000E00127574502DDA7EB0A0000E0002012
:103F900000EB0A01009005984144401A0590E003A7
:103FA00006D45B462146179A059800F0B3F90544FC
:103FB000002706E001A85A46C05D179990476D1C7E
:103FC0007F1C4745F6DBE0030CD55B462146179A7C
:103FD000059800F09FF9054404E030205A461799EF
:103FE00090476D1C0099481E00900029F5DC08E000
:103FF000029802995A460078491C029117999047F5
:104000006D1CBAF10001AAF1010AF1DC65E10000C2
:10401000092801003031323334353637383961629E
:104020006364656600000000303132333435363762
:1040300038394142434445460000000000F058F939
:104040000544761C307800287FF4ECAD19B0284682
:10405000BDE8F08F620700D4062709F1070222F0BD
:10406000070CFCE80223E14603F000485FEA080C75
:1040700002D00FF2702C0DE05FEA045C02D50FF263
:10408000682C07E05FEAC47C02D00FF2602C01E0EC
:10409000AFF2700C4FF0FF3823F00043CDF850C062
:1040A00065280CD006DC452809D046281DD04728B5
:1040B0003DD13DE0662818D067287ED138E0002148
:1040C000112F01DB112000E0781CCDE9000106A9C9
:1040D0000EA8FFF7DDFCDDE90F010E9A0391002128
:1040E000009207F1010A04914DE04FF00040009763
:1040F000CDE9011006A90EA8FFF7CAFCDDE90F0201
:1041000003920E9B11990022DDF80CA000930492FB
:1041100011B9791C00EB010AB7EB0A0004D4C0F115
:10412000FF3007F1010A0490AAEB0700019044E078
:10413000012F00DA01270021112F01DD112000E0FD
:104140003846CDE9000106A90EA8FFF7A1FCDDE97C
:104150000F010E9A0391002104910092BA462107A3
:104160000CD40399514500DA8A46BAF1010F05DDF6
:10417000009AAAF10101515C302908D0B84202DA54
:1041800010F1040F06DA0121CDE9011015E0AAF1C2
:104190000101E9E7002805DC049901440491AAEB38
:1041A000000102E0411C514500DD8A460499401A95
:1041B000401C01904FF000400290200704D4019869
:1041C000504501DBCDF8048000208DF84F000298A7
:1041D0000DF14F07B0F1004F25D02B200E90029823
:1041E0004FF0020800280CDA404202902D200E9079
:1041F00007E00A210298FFF797F93031029007F89B
:10420000011DB8F10001A8F10108F2DC02980028B4
:10421000EFD1791E0E980870307800F0200040F041
:10422000450007F8020D12A8C01B00F107081498FA
:10423000007800B1012000EB0A01019801EBE07168
:1042400005984144401A401E0590E00306D45B46A1
:104250002146179A059800F05DF8054414980078F7
:1042600018B15A46179990476D1CE00324D55B4658
:104270002146179A059800F04DF805441CE0049873
:10428000002807DBDDE90301884203DD0098405C7C
:10429000179901E0179930205A469047049805F184
:1042A0000105401C04900198401E019004D12E206D
:1042B0005A46179990476D1CBAF10001AAF1010AFC
:1042C000DDDC05E017F8010B5A46179990476D1C85
:1042D000B8F10001A8F10108F4DC5B462146179A09
:1042E0000598ABE62D0000002B0000002000000028
:1042F0002DE9F041044600251E461746880404D4E3
:1043000005E039462020B0476D1C641EF9D52846CB
:10431000BDE8F0812DE9F041044600251E46904697
:10432000C80301D5302700E02027880404D505E024
:1043300041463846B0476D1C641EF9D52846BDE895
:10434000F0810000000000000000000000000000FC
:104350000000000000F80000000000000033300002
:10436000000000100C06100C060000000000000009
:10437000000040C07840C0784000043F04043F047F
:104380000400007088FC08300000001820FF211E87
:104390000000F008F000E018000000211C031E21BE
:1043A0001E0000F00888700000001E212324192739
:1043B000211010160E000000000000000000000098
:1043C0000000000000E018040200000000071820B0
:1043D000400000020418E000000000402018070020
:1043E0000000404080F0804040000202010F0102C6
:1043F0000200000000F0000000000101011F0101A7
:104400000100000000000000000080B0700000000B
:104410000000000000000000000000010101010197
:10442000010100000000000000000030300000002A
:104430000000000000008060180400601806010001
:10444000000000E010080810E000000F102020100D
:104450000F00001010F8000000000020203F202076
:10446000000000700808088870000030282422210D
:1044700030000030088888483000001820202011C3
:104480000E000000C02010F8000000070424243FA4
:10449000240000F80888880808000019212020114D
:1044A0000E0000E0108888180000000F1120201175
:1044B0000E0000380808C83808000000003F00005F
:1044C00000000070880808887000001C222121224A
:1044D0001C0000E010080810E0000000312222114A
:1044E0000F00000000C0C0000000000000303000DD
:1044F000000000000080000000000000806000005C
:104500000000000080402010080000010204081094
:1045100020004040404040404000040404040404A3
:104520000400000810204080000000201008040251
:104530000100007048080808F00000000030360153
:104540000000C030C828E810E00007182724231412
:104550000B000000C038E0000000203C23020227CE
:10456000382008F8888888700000203F202020111B
:104570000E00C03008080808380007182020201056
:10458000080008F808080810E000203F202020104C
:104590000F0008F88888E8081000203F202023201A
:1045A000180008F88888E8081000203F2000030061
:1045B0000000C03008080838000007182020221E1C
:1045C000020008F808000008F808203F2101012136
:1045D0003F20000808F8080800000020203F2020A5
:1045E000000000000808F8080800C08080807F00F4
:1045F000000008F888C028180800203F200126384D
:10460000200008F8080000000000203F20202020A3
:10461000300008F8F800F8F80800203F003F003F9D
:10462000200008F830C00008F808203F20000718D4
:104630003F00E01008080810E0000F1020202010B4
:104640000F0008F808080808F000203F21010101C8
:104650000000E01008080810E0000F18242438506B
:104660004F0008F8888888887000203F2000030CDD
:1046700030200070880808083800003820212122E6
:104680001C00180808F8080818000000203F200047
:10469000000008F808000008F808001F202020206B
:1046A0001F000878880000C83808000007380E018D
:1046B0000000F80800F80008F800033C0700073C79
:1046C0000300081868808068180820302C03032C29
:1046D00030200838C800C83808000000203F2000FB
:1046E000000010080808C8380800203826212020BB
:1046F0001800000000FE020202000000007F40409F
:104700004000000C30C0000000000000000106382E
:10471000C00000020202FE000000004040407F0096
:10472000000000000402020204000000000000007B
:104730000000000000000000000080808080808079
:104740008080000202040000000000000000000061
:1047500000000000808080800000001924222222B6
:104760003F2008F8008080000000003F1120201149
:104770000E000000008080800000000E112020202C
:104780001100000000808088F800000E1120201029
:104790003F200000808080800000001F2222222213
:1047A0001300008080F0888888180020203F202097
:1047B00000000000808080808000006B94949493BF
:1047C000600008F8008080800000203F2100002069
:1047D0003F2000809898000000000020203F20200B
:1047E0000000000000809898000000C08080807F5A
:1047F000000008F8000080808000203F24022D3057
:104800002000000808F8000000000020203F2020C1
:1048100000008080808080808000203F20003F203A
:10482000003F8080008080800000203F2100002029
:104830003F200000808080800000001F202020207A
:104840001F00808000808000000080FFA1202011D8
:104850000E000000008080808000000E112020A04B
:10486000FF80808080008080800020203F21200009
:1048700001000000808080808000003324242424F4
:104880001900008080E0808000000000001F2020D0
:1048900000008080000000808000001F2020201089
:1048A0003F20808080000080808000010E3008065C
:1048B000010080800080008080800F300C030C306D
:1048C0000F0000808000808080000020312E0E319B
:1048D0002000808080000080808080818E7018069B
:1048E000010000808080808080000021302C222107
:1048F000300000000000807C020200000000003F49
:10490000404000000000FF00000000000000FF0029
:1049100000000002027C800000000040403F0000D8
:104920000000000601010202040400000000000073
:104930000000000054490008000000204408000066
:10494000F23900085C4B0008440800206C070000A6
:10495000803A000840120003050911FF118905C3C0
:1049600000E000F000F8000100083A4428FF11AA16
:10497000440001500B8301384482929274018311E8
:1049800020087C44FF017D7D7D04410540047D01BC
:10499000FF6E920102613F033B01017E814191491B
:1049A000F20101011BC230083F3F0303F313110161
:1049B000100601F1116181402005816111F1473339
:1049C000414107200401C12120A321C11431193123
:1049D00037040736D33303033F3F426006E0E0006D
:1049E000007FA8127FBF40040618060A10080000C6
:1049F00040407F4040A410041F204001A3201F140A
:104A00003300600E6004300C03460534C210040706
:104A100007060170090404048444444484078005A3
:104A20000484C4041501120A71112140073D0707CF
:104A3000C9200F0000101814121100000F101010E0
:104A40000F0F131F1015600D081012120D00001823
:104A500000000D120A51295130015E0152800101FE
:104A60003B4514047F030CA915DE1C05385454582B
:104A70002503080A2004047800003C40407C200004
:104A8000092CFFAAAAAA280800FF6810062649498F
:104A90004932101005020408100F0D6F00049D012B
:104AA000040D9D0004156343F80801240500F8185F
:104AB00060E82404806018235720202923E0102177
:104AC000A310E01449B4313908043C886818630D18
:104AD00015FF037DEA039DFF0371144DFF031D06BF
:104AE000043D2E040942E91C0640202020C04A044F
:104AF000110721EA3E40520452600E81187129517B
:104B0000070D4769031C060C0A0A090C0004156B03
:104B10002D00042004080F081510050809090E07C8
:104B20001D180430050909090F0A512951070DFF05
:104B300000040D22000429C67C04A24A0423075C59
:104B4000080203040607080998030D1056071120F0
:0C4B500061242404020406890200000015
:0400000508000131BD
:00000001FF
